{
	"contracts/Perpustakaan.sol": {
		"Perpustakaan": {
			"abi": [
				{
					"inputs": [],
					"stateMutability": "nonpayable",
					"type": "constructor"
				},
				{
					"anonymous": false,
					"inputs": [
						{
							"indexed": false,
							"internalType": "uint256",
							"name": "ISBN",
							"type": "uint256"
						}
					],
					"name": "BukuDiHapus",
					"type": "event"
				},
				{
					"anonymous": false,
					"inputs": [
						{
							"indexed": false,
							"internalType": "uint256",
							"name": "ISBN",
							"type": "uint256"
						},
						{
							"indexed": false,
							"internalType": "string",
							"name": "judul",
							"type": "string"
						},
						{
							"indexed": false,
							"internalType": "uint256",
							"name": "tahunDibuat",
							"type": "uint256"
						},
						{
							"indexed": false,
							"internalType": "string",
							"name": "penulis",
							"type": "string"
						}
					],
					"name": "BukuDiUpdate",
					"type": "event"
				},
				{
					"anonymous": false,
					"inputs": [
						{
							"indexed": false,
							"internalType": "uint256",
							"name": "ISBN",
							"type": "uint256"
						},
						{
							"indexed": false,
							"internalType": "string",
							"name": "judul",
							"type": "string"
						},
						{
							"indexed": false,
							"internalType": "uint256",
							"name": "tahunDibuat",
							"type": "uint256"
						},
						{
							"indexed": false,
							"internalType": "string",
							"name": "penulis",
							"type": "string"
						}
					],
					"name": "BukuDitambahkan",
					"type": "event"
				},
				{
					"inputs": [],
					"name": "admin",
					"outputs": [
						{
							"internalType": "address",
							"name": "",
							"type": "address"
						}
					],
					"stateMutability": "view",
					"type": "function"
				},
				{
					"inputs": [
						{
							"internalType": "uint256",
							"name": "",
							"type": "uint256"
						}
					],
					"name": "bukuByISBN",
					"outputs": [
						{
							"internalType": "string",
							"name": "judul",
							"type": "string"
						},
						{
							"internalType": "uint256",
							"name": "tahunDibuat",
							"type": "uint256"
						},
						{
							"internalType": "string",
							"name": "penulis",
							"type": "string"
						}
					],
					"stateMutability": "view",
					"type": "function"
				},
				{
					"inputs": [
						{
							"internalType": "uint256",
							"name": "ISBN",
							"type": "uint256"
						}
					],
					"name": "getDataBukuByISBN",
					"outputs": [
						{
							"internalType": "string",
							"name": "",
							"type": "string"
						},
						{
							"internalType": "uint256",
							"name": "",
							"type": "uint256"
						},
						{
							"internalType": "string",
							"name": "",
							"type": "string"
						}
					],
					"stateMutability": "view",
					"type": "function"
				},
				{
					"inputs": [
						{
							"internalType": "uint256",
							"name": "ISBN",
							"type": "uint256"
						}
					],
					"name": "hapusBuku",
					"outputs": [],
					"stateMutability": "nonpayable",
					"type": "function"
				},
				{
					"inputs": [
						{
							"internalType": "uint256",
							"name": "ISBN",
							"type": "uint256"
						},
						{
							"internalType": "string",
							"name": "judul",
							"type": "string"
						},
						{
							"internalType": "uint256",
							"name": "tahunDibuat",
							"type": "uint256"
						},
						{
							"internalType": "string",
							"name": "penulis",
							"type": "string"
						}
					],
					"name": "tambahBuku",
					"outputs": [],
					"stateMutability": "nonpayable",
					"type": "function"
				},
				{
					"inputs": [
						{
							"internalType": "uint256",
							"name": "ISBN",
							"type": "uint256"
						},
						{
							"internalType": "string",
							"name": "judul",
							"type": "string"
						},
						{
							"internalType": "uint256",
							"name": "tahunDibuat",
							"type": "uint256"
						},
						{
							"internalType": "string",
							"name": "penulis",
							"type": "string"
						}
					],
					"name": "updateBuku",
					"outputs": [],
					"stateMutability": "nonpayable",
					"type": "function"
				}
			],
			"devdoc": {
				"kind": "dev",
				"methods": {},
				"version": 1
			},
			"evm": {
				"assembly": "    /* \"contracts/Perpustakaan.sol\":97:2534  contract Perpustakaan {... */\n  mstore(0x40, 0x80)\n    /* \"contracts/Perpustakaan.sol\":281:346  address public admin = 0x5B38Da6a701c568545dCfcB03FcB875f56beddC4 */\n  0x01\n  dup1\n  sload\n  not(sub(shl(0xa0, 0x01), 0x01))\n  and\n    /* \"contracts/Perpustakaan.sol\":304:346  0x5B38Da6a701c568545dCfcB03FcB875f56beddC4 */\n  0x5b38da6a701c568545dcfcb03fcb875f56beddc4\n    /* \"contracts/Perpustakaan.sol\":281:346  address public admin = 0x5B38Da6a701c568545dCfcB03FcB875f56beddC4 */\n  or\n  swap1\n  sstore\n    /* \"contracts/Perpustakaan.sol\":704:755  constructor() {... */\n  callvalue\n  dup1\n  iszero\n  tag_1\n  jumpi\n  0x00\n  dup1\n  revert\ntag_1:\n  pop\n    /* \"contracts/Perpustakaan.sol\":729:734  admin */\n  0x01\n    /* \"contracts/Perpustakaan.sol\":729:747  admin = msg.sender */\n  dup1\n  sload\n  not(sub(shl(0xa0, 0x01), 0x01))\n  and\n    /* \"contracts/Perpustakaan.sol\":737:747  msg.sender */\n  caller\n    /* \"contracts/Perpustakaan.sol\":729:747  admin = msg.sender */\n  or\n  swap1\n  sstore\n    /* \"contracts/Perpustakaan.sol\":97:2534  contract Perpustakaan {... */\n  dataSize(sub_0)\n  dup1\n  dataOffset(sub_0)\n  0x00\n  codecopy\n  0x00\n  return\nstop\n\nsub_0: assembly {\n        /* \"contracts/Perpustakaan.sol\":97:2534  contract Perpustakaan {... */\n      mstore(0x40, 0x80)\n      callvalue\n      dup1\n      iszero\n      tag_1\n      jumpi\n      0x00\n      dup1\n      revert\n    tag_1:\n      pop\n      jumpi(tag_2, lt(calldatasize, 0x04))\n      shr(0xe0, calldataload(0x00))\n      dup1\n      0x2e28a7ca\n      eq\n      tag_3\n      jumpi\n      dup1\n      0x62b56c74\n      eq\n      tag_4\n      jumpi\n      dup1\n      0xb4a19ae4\n      eq\n      tag_5\n      jumpi\n      dup1\n      0xebe47460\n      eq\n      tag_6\n      jumpi\n      dup1\n      0xf0a85cf7\n      eq\n      tag_7\n      jumpi\n      dup1\n      0xf851a440\n      eq\n      tag_8\n      jumpi\n    tag_2:\n      0x00\n      dup1\n      revert\n        /* \"contracts/Perpustakaan.sol\":1894:2152  function hapusBuku(uint256 ISBN) public onlyAdmin {... */\n    tag_3:\n      tag_9\n      tag_10\n      calldatasize\n      0x04\n      tag_11\n      jump\t// in\n    tag_10:\n      tag_12\n      jump\t// in\n    tag_9:\n      stop\n        /* \"contracts/Perpustakaan.sol\":2220:2531  function getDataBukuByISBN(uint256 ISBN) public view returns (string memory, uint256, string memory) {... */\n    tag_4:\n      tag_13\n      tag_14\n      calldatasize\n      0x04\n      tag_11\n      jump\t// in\n    tag_14:\n      tag_15\n      jump\t// in\n    tag_13:\n      mload(0x40)\n      tag_16\n      swap4\n      swap3\n      swap2\n      swap1\n      tag_17\n      jump\t// in\n    tag_16:\n      mload(0x40)\n      dup1\n      swap2\n      sub\n      swap1\n      return\n        /* \"contracts/Perpustakaan.sol\":1003:1387  function tambahBuku(uint256 ISBN, string memory judul, uint256 tahunDibuat, string memory penulis) public onlyAdmin {... */\n    tag_5:\n      tag_9\n      tag_19\n      calldatasize\n      0x04\n      tag_20\n      jump\t// in\n    tag_19:\n      tag_21\n      jump\t// in\n        /* \"contracts/Perpustakaan.sol\":1449:1833  function updateBuku(uint256 ISBN, string memory judul, uint256 tahunDibuat, string memory penulis) public onlyAdmin {... */\n    tag_6:\n      tag_9\n      tag_23\n      calldatasize\n      0x04\n      tag_20\n      jump\t// in\n    tag_23:\n      tag_24\n      jump\t// in\n        /* \"contracts/Perpustakaan.sol\":232:274  mapping(uint256 => Buku) public bukuByISBN */\n    tag_7:\n      tag_13\n      tag_26\n      calldatasize\n      0x04\n      tag_11\n      jump\t// in\n    tag_26:\n      tag_27\n      jump\t// in\n        /* \"contracts/Perpustakaan.sol\":281:346  address public admin = 0x5B38Da6a701c568545dCfcB03FcB875f56beddC4 */\n    tag_8:\n      sload(0x01)\n      tag_29\n      swap1\n      sub(shl(0xa0, 0x01), 0x01)\n      and\n      dup2\n      jump\n    tag_29:\n      mload(0x40)\n      sub(shl(0xa0, 0x01), 0x01)\n        /* \"#utility.yul\":2840:2872   */\n      swap1\n      swap2\n      and\n        /* \"#utility.yul\":2822:2873   */\n      dup2\n      mstore\n        /* \"#utility.yul\":2810:2812   */\n      0x20\n        /* \"#utility.yul\":2795:2813   */\n      add\n        /* \"contracts/Perpustakaan.sol\":281:346  address public admin = 0x5B38Da6a701c568545dCfcB03FcB875f56beddC4 */\n      tag_16\n        /* \"#utility.yul\":2676:2879   */\n      jump\n        /* \"contracts/Perpustakaan.sol\":1894:2152  function hapusBuku(uint256 ISBN) public onlyAdmin {... */\n    tag_12:\n        /* \"contracts/Perpustakaan.sol\":882:887  admin */\n      and(sub(shl(0xa0, 0x01), 0x01), sload(0x01))\n        /* \"contracts/Perpustakaan.sol\":868:878  msg.sender */\n      caller\n        /* \"contracts/Perpustakaan.sol\":868:887  msg.sender == admin */\n      eq\n        /* \"contracts/Perpustakaan.sol\":860:935  require(msg.sender == admin, \"Hanya admin yang dapat mengakses fungsi ini\") */\n      tag_34\n      jumpi\n      mload(0x40)\n      shl(0xe5, 0x461bcd)\n      dup2\n      mstore\n      0x04\n      add\n      tag_35\n      swap1\n      tag_36\n      jump\t// in\n    tag_35:\n      mload(0x40)\n      dup1\n      swap2\n      sub\n      swap1\n      revert\n    tag_34:\n        /* \"contracts/Perpustakaan.sol\":1963:1973  bukuByISBN */\n      0x00\n        /* \"contracts/Perpustakaan.sol\":1963:1979  bukuByISBN[ISBN] */\n      dup2\n      dup2\n      mstore\n      0x20\n      dup2\n      swap1\n      mstore\n      0x40\n      dup2\n      keccak256\n        /* \"contracts/Perpustakaan.sol\":1963:1991  bukuByISBN[ISBN].tahunDibuat */\n      0x01\n      add\n      sload\n        /* \"contracts/Perpustakaan.sol\":1963:1996  bukuByISBN[ISBN].tahunDibuat != 0 */\n      swap1\n      sub\n        /* \"contracts/Perpustakaan.sol\":1955:2037  require(bukuByISBN[ISBN].tahunDibuat != 0, \"Buku dengan ISBN ini tidak ditemukan\") */\n      tag_38\n      jumpi\n      mload(0x40)\n      shl(0xe5, 0x461bcd)\n      dup2\n      mstore\n      0x04\n      add\n      tag_35\n      swap1\n      tag_40\n      jump\t// in\n    tag_38:\n        /* \"contracts/Perpustakaan.sol\":2055:2065  bukuByISBN */\n      0x00\n        /* \"contracts/Perpustakaan.sol\":2055:2071  bukuByISBN[ISBN] */\n      dup2\n      dup2\n      mstore\n      0x20\n      dup2\n      swap1\n      mstore\n      0x40\n      dup2\n      keccak256\n      swap1\n        /* \"contracts/Perpustakaan.sol\":2048:2071  delete bukuByISBN[ISBN] */\n      tag_41\n        /* \"contracts/Perpustakaan.sol\":2055:2071  bukuByISBN[ISBN] */\n      dup3\n        /* \"contracts/Perpustakaan.sol\":2055:2065  bukuByISBN */\n      dup3\n        /* \"contracts/Perpustakaan.sol\":2048:2071  delete bukuByISBN[ISBN] */\n      tag_42\n      jump\t// in\n    tag_41:\n      0x01\n      dup3\n      add\n      0x00\n      swap1\n      sstore\n      0x02\n      dup3\n      add\n      0x00\n      tag_43\n      swap2\n      swap1\n      tag_42\n      jump\t// in\n    tag_43:\n      pop\n      pop\n        /* \"contracts/Perpustakaan.sol\":2127:2144  BukuDiHapus(ISBN) */\n      mload(0x40)\n        /* \"#utility.yul\":3847:3872   */\n      dup2\n      dup2\n      mstore\n        /* \"contracts/Perpustakaan.sol\":2127:2144  BukuDiHapus(ISBN) */\n      0xb64bf8f8d915e69adc10f6e2e15e12480757699268bf04af8a5814c6464d209e\n      swap1\n        /* \"#utility.yul\":3835:3837   */\n      0x20\n        /* \"#utility.yul\":3820:3838   */\n      add\n        /* \"contracts/Perpustakaan.sol\":2127:2144  BukuDiHapus(ISBN) */\n      mload(0x40)\n      dup1\n      swap2\n      sub\n      swap1\n      log1\n        /* \"contracts/Perpustakaan.sol\":1894:2152  function hapusBuku(uint256 ISBN) public onlyAdmin {... */\n      pop\n      jump\t// out\n        /* \"contracts/Perpustakaan.sol\":2220:2531  function getDataBukuByISBN(uint256 ISBN) public view returns (string memory, uint256, string memory) {... */\n    tag_15:\n        /* \"contracts/Perpustakaan.sol\":2297:2304  uint256 */\n      0x00\n        /* \"contracts/Perpustakaan.sol\":2340:2356  bukuByISBN[ISBN] */\n      dup2\n      dup2\n      mstore\n      0x20\n      dup2\n      swap1\n      mstore\n      0x40\n      dup2\n      keccak256\n        /* \"contracts/Perpustakaan.sol\":2340:2368  bukuByISBN[ISBN].tahunDibuat */\n      0x01\n      add\n      sload\n        /* \"contracts/Perpustakaan.sol\":2282:2295  string memory */\n      0x60\n      swap2\n        /* \"contracts/Perpustakaan.sol\":2297:2304  uint256 */\n      swap1\n        /* \"contracts/Perpustakaan.sol\":2282:2295  string memory */\n      dup3\n      swap1\n        /* \"contracts/Perpustakaan.sol\":2340:2373  bukuByISBN[ISBN].tahunDibuat != 0 */\n      dup3\n      sub\n        /* \"contracts/Perpustakaan.sol\":2332:2414  require(bukuByISBN[ISBN].tahunDibuat != 0, \"Buku dengan ISBN ini tidak ditemukan\") */\n      tag_47\n      jumpi\n      mload(0x40)\n      shl(0xe5, 0x461bcd)\n      dup2\n      mstore\n      0x04\n      add\n      tag_35\n      swap1\n      tag_40\n      jump\t// in\n    tag_47:\n        /* \"contracts/Perpustakaan.sol\":2425:2442  Buku storage buku */\n      0x00\n        /* \"contracts/Perpustakaan.sol\":2445:2461  bukuByISBN[ISBN] */\n      dup5\n      dup2\n      mstore\n      0x20\n      dup2\n      swap1\n      mstore\n      0x40\n      swap1\n      keccak256\n        /* \"contracts/Perpustakaan.sol\":2492:2508  buku.tahunDibuat */\n      0x01\n      dup2\n      add\n      sload\n        /* \"contracts/Perpustakaan.sol\":2472:2523  return (buku.judul, buku.tahunDibuat, buku.penulis) */\n      dup2\n      sload\n        /* \"contracts/Perpustakaan.sol\":2445:2461  bukuByISBN[ISBN] */\n      dup3\n      swap2\n        /* \"contracts/Perpustakaan.sol\":2492:2508  buku.tahunDibuat */\n      swap1\n        /* \"contracts/Perpustakaan.sol\":2510:2522  buku.penulis */\n      0x02\n      dup4\n      add\n      swap1\n        /* \"contracts/Perpustakaan.sol\":2445:2461  bukuByISBN[ISBN] */\n      dup4\n      swap1\n        /* \"contracts/Perpustakaan.sol\":2472:2523  return (buku.judul, buku.tahunDibuat, buku.penulis) */\n      tag_49\n      swap1\n      tag_50\n      jump\t// in\n    tag_49:\n      dup1\n      0x1f\n      add\n      0x20\n      dup1\n      swap2\n      div\n      mul\n      0x20\n      add\n      mload(0x40)\n      swap1\n      dup2\n      add\n      0x40\n      mstore\n      dup1\n      swap3\n      swap2\n      swap1\n      dup2\n      dup2\n      mstore\n      0x20\n      add\n      dup3\n      dup1\n      sload\n      tag_51\n      swap1\n      tag_50\n      jump\t// in\n    tag_51:\n      dup1\n      iszero\n      tag_52\n      jumpi\n      dup1\n      0x1f\n      lt\n      tag_53\n      jumpi\n      0x0100\n      dup1\n      dup4\n      sload\n      div\n      mul\n      dup4\n      mstore\n      swap2\n      0x20\n      add\n      swap2\n      jump(tag_52)\n    tag_53:\n      dup3\n      add\n      swap2\n      swap1\n      0x00\n      mstore\n      keccak256(0x00, 0x20)\n      swap1\n    tag_54:\n      dup2\n      sload\n      dup2\n      mstore\n      swap1\n      0x01\n      add\n      swap1\n      0x20\n      add\n      dup1\n      dup4\n      gt\n      tag_54\n      jumpi\n      dup3\n      swap1\n      sub\n      0x1f\n      and\n      dup3\n      add\n      swap2\n    tag_52:\n      pop\n      pop\n      pop\n      pop\n      pop\n      swap3\n      pop\n      dup1\n      dup1\n      sload\n      tag_55\n      swap1\n      tag_50\n      jump\t// in\n    tag_55:\n      dup1\n      0x1f\n      add\n      0x20\n      dup1\n      swap2\n      div\n      mul\n      0x20\n      add\n      mload(0x40)\n      swap1\n      dup2\n      add\n      0x40\n      mstore\n      dup1\n      swap3\n      swap2\n      swap1\n      dup2\n      dup2\n      mstore\n      0x20\n      add\n      dup3\n      dup1\n      sload\n      tag_56\n      swap1\n      tag_50\n      jump\t// in\n    tag_56:\n      dup1\n      iszero\n      tag_57\n      jumpi\n      dup1\n      0x1f\n      lt\n      tag_58\n      jumpi\n      0x0100\n      dup1\n      dup4\n      sload\n      div\n      mul\n      dup4\n      mstore\n      swap2\n      0x20\n      add\n      swap2\n      jump(tag_57)\n    tag_58:\n      dup3\n      add\n      swap2\n      swap1\n      0x00\n      mstore\n      keccak256(0x00, 0x20)\n      swap1\n    tag_59:\n      dup2\n      sload\n      dup2\n      mstore\n      swap1\n      0x01\n      add\n      swap1\n      0x20\n      add\n      dup1\n      dup4\n      gt\n      tag_59\n      jumpi\n      dup3\n      swap1\n      sub\n      0x1f\n      and\n      dup3\n      add\n      swap2\n    tag_57:\n      pop\n      pop\n      pop\n      pop\n      pop\n      swap1\n      pop\n      swap4\n      pop\n      swap4\n      pop\n      swap4\n      pop\n      pop\n        /* \"contracts/Perpustakaan.sol\":2220:2531  function getDataBukuByISBN(uint256 ISBN) public view returns (string memory, uint256, string memory) {... */\n      swap2\n      swap4\n      swap1\n      swap3\n      pop\n      jump\t// out\n        /* \"contracts/Perpustakaan.sol\":1003:1387  function tambahBuku(uint256 ISBN, string memory judul, uint256 tahunDibuat, string memory penulis) public onlyAdmin {... */\n    tag_21:\n        /* \"contracts/Perpustakaan.sol\":882:887  admin */\n      and(sub(shl(0xa0, 0x01), 0x01), sload(0x01))\n        /* \"contracts/Perpustakaan.sol\":868:878  msg.sender */\n      caller\n        /* \"contracts/Perpustakaan.sol\":868:887  msg.sender == admin */\n      eq\n        /* \"contracts/Perpustakaan.sol\":860:935  require(msg.sender == admin, \"Hanya admin yang dapat mengakses fungsi ini\") */\n      tag_61\n      jumpi\n      mload(0x40)\n      shl(0xe5, 0x461bcd)\n      dup2\n      mstore\n      0x04\n      add\n      tag_35\n      swap1\n      tag_36\n      jump\t// in\n    tag_61:\n        /* \"contracts/Perpustakaan.sol\":1138:1148  bukuByISBN */\n      0x00\n        /* \"contracts/Perpustakaan.sol\":1138:1154  bukuByISBN[ISBN] */\n      dup5\n      dup2\n      mstore\n      0x20\n      dup2\n      swap1\n      mstore\n      0x40\n      swap1\n      keccak256\n        /* \"contracts/Perpustakaan.sol\":1138:1166  bukuByISBN[ISBN].tahunDibuat */\n      0x01\n      add\n      sload\n        /* \"contracts/Perpustakaan.sol\":1138:1171  bukuByISBN[ISBN].tahunDibuat == 0 */\n      iszero\n        /* \"contracts/Perpustakaan.sol\":1130:1206  require(bukuByISBN[ISBN].tahunDibuat == 0, \"Buku dengan ISBN ini sudah ada\") */\n      tag_64\n      jumpi\n      mload(0x40)\n      shl(0xe5, 0x461bcd)\n      dup2\n      mstore\n        /* \"#utility.yul\":4470:4472   */\n      0x20\n        /* \"contracts/Perpustakaan.sol\":1130:1206  require(bukuByISBN[ISBN].tahunDibuat == 0, \"Buku dengan ISBN ini sudah ada\") */\n      0x04\n      dup3\n      add\n        /* \"#utility.yul\":4452:4473   */\n      mstore\n        /* \"#utility.yul\":4509:4511   */\n      0x1e\n        /* \"#utility.yul\":4489:4507   */\n      0x24\n      dup3\n      add\n        /* \"#utility.yul\":4482:4512   */\n      mstore\n        /* \"#utility.yul\":4548:4580   */\n      0x42756b752064656e67616e204953424e20696e69207375646168206164610000\n        /* \"#utility.yul\":4528:4546   */\n      0x44\n      dup3\n      add\n        /* \"#utility.yul\":4521:4581   */\n      mstore\n        /* \"#utility.yul\":4598:4616   */\n      0x64\n      add\n        /* \"contracts/Perpustakaan.sol\":1130:1206  require(bukuByISBN[ISBN].tahunDibuat == 0, \"Buku dengan ISBN ini sudah ada\") */\n      tag_35\n        /* \"#utility.yul\":4268:4622   */\n      jump\n        /* \"contracts/Perpustakaan.sol\":1130:1206  require(bukuByISBN[ISBN].tahunDibuat == 0, \"Buku dengan ISBN ini sudah ada\") */\n    tag_64:\n        /* \"contracts/Perpustakaan.sol\":1236:1269  Buku(judul, tahunDibuat, penulis) */\n      0x40\n      dup1\n      mload\n      0x60\n      dup2\n      add\n      dup3\n      mstore\n      dup5\n      dup2\n      mstore\n      0x20\n      dup1\n      dup3\n      add\n      dup6\n      swap1\n      mstore\n      dup2\n      dup4\n      add\n      dup5\n      swap1\n      mstore\n      0x00\n        /* \"contracts/Perpustakaan.sol\":1217:1233  bukuByISBN[ISBN] */\n      dup8\n      dup2\n      mstore\n      dup1\n      dup3\n      mstore\n      swap3\n      swap1\n      swap3\n      keccak256\n        /* \"contracts/Perpustakaan.sol\":1217:1269  bukuByISBN[ISBN] = Buku(judul, tahunDibuat, penulis) */\n      dup2\n      mload\n      dup1\n      mload\n        /* \"contracts/Perpustakaan.sol\":1236:1269  Buku(judul, tahunDibuat, penulis) */\n      swap3\n      swap4\n        /* \"contracts/Perpustakaan.sol\":1217:1233  bukuByISBN[ISBN] */\n      swap2\n      swap3\n        /* \"contracts/Perpustakaan.sol\":1217:1269  bukuByISBN[ISBN] = Buku(judul, tahunDibuat, penulis) */\n      tag_67\n      swap3\n        /* \"contracts/Perpustakaan.sol\":1217:1233  bukuByISBN[ISBN] */\n      dup5\n      swap3\n        /* \"contracts/Perpustakaan.sol\":1217:1269  bukuByISBN[ISBN] = Buku(judul, tahunDibuat, penulis) */\n      add\n      swap1\n      tag_68\n      jump\t// in\n    tag_67:\n      pop\n      0x20\n      dup3\n      dup2\n      add\n      mload\n      0x01\n      dup4\n      add\n      sstore\n      0x40\n      dup4\n      add\n      mload\n      dup1\n      mload\n      tag_69\n      swap3\n      0x02\n      dup6\n      add\n      swap3\n      add\n      swap1\n      tag_68\n      jump\t// in\n    tag_69:\n      pop\n      swap1\n      pop\n      pop\n        /* \"contracts/Perpustakaan.sol\":1329:1379  BukuDitambahkan(ISBN, judul, tahunDibuat, penulis) */\n      0xd0d4cd8737018e52a6388a5921967e80bec857befd9ca6c10fa377129e0cba4b\n        /* \"contracts/Perpustakaan.sol\":1345:1349  ISBN */\n      dup5\n        /* \"contracts/Perpustakaan.sol\":1351:1356  judul */\n      dup5\n        /* \"contracts/Perpustakaan.sol\":1358:1369  tahunDibuat */\n      dup5\n        /* \"contracts/Perpustakaan.sol\":1371:1378  penulis */\n      dup5\n        /* \"contracts/Perpustakaan.sol\":1329:1379  BukuDitambahkan(ISBN, judul, tahunDibuat, penulis) */\n      mload(0x40)\n      tag_70\n      swap5\n      swap4\n      swap3\n      swap2\n      swap1\n      tag_71\n      jump\t// in\n    tag_70:\n      mload(0x40)\n      dup1\n      swap2\n      sub\n      swap1\n      log1\n        /* \"contracts/Perpustakaan.sol\":1003:1387  function tambahBuku(uint256 ISBN, string memory judul, uint256 tahunDibuat, string memory penulis) public onlyAdmin {... */\n      pop\n      pop\n      pop\n      pop\n      jump\t// out\n        /* \"contracts/Perpustakaan.sol\":1449:1833  function updateBuku(uint256 ISBN, string memory judul, uint256 tahunDibuat, string memory penulis) public onlyAdmin {... */\n    tag_24:\n        /* \"contracts/Perpustakaan.sol\":882:887  admin */\n      and(sub(shl(0xa0, 0x01), 0x01), sload(0x01))\n        /* \"contracts/Perpustakaan.sol\":868:878  msg.sender */\n      caller\n        /* \"contracts/Perpustakaan.sol\":868:887  msg.sender == admin */\n      eq\n        /* \"contracts/Perpustakaan.sol\":860:935  require(msg.sender == admin, \"Hanya admin yang dapat mengakses fungsi ini\") */\n      tag_73\n      jumpi\n      mload(0x40)\n      shl(0xe5, 0x461bcd)\n      dup2\n      mstore\n      0x04\n      add\n      tag_35\n      swap1\n      tag_36\n      jump\t// in\n    tag_73:\n        /* \"contracts/Perpustakaan.sol\":1584:1594  bukuByISBN */\n      0x00\n        /* \"contracts/Perpustakaan.sol\":1584:1600  bukuByISBN[ISBN] */\n      dup5\n      dup2\n      mstore\n      0x20\n      dup2\n      swap1\n      mstore\n      0x40\n      dup2\n      keccak256\n        /* \"contracts/Perpustakaan.sol\":1584:1612  bukuByISBN[ISBN].tahunDibuat */\n      0x01\n      add\n      sload\n        /* \"contracts/Perpustakaan.sol\":1584:1617  bukuByISBN[ISBN].tahunDibuat != 0 */\n      swap1\n      sub\n        /* \"contracts/Perpustakaan.sol\":1576:1658  require(bukuByISBN[ISBN].tahunDibuat != 0, \"Buku dengan ISBN ini tidak ditemukan\") */\n      tag_76\n      jumpi\n      mload(0x40)\n      shl(0xe5, 0x461bcd)\n      dup2\n      mstore\n      0x04\n      add\n      tag_35\n      swap1\n      tag_40\n      jump\t// in\n    tag_76:\n        /* \"contracts/Perpustakaan.sol\":1688:1721  Buku(judul, tahunDibuat, penulis) */\n      0x40\n      dup1\n      mload\n      0x60\n      dup2\n      add\n      dup3\n      mstore\n      dup5\n      dup2\n      mstore\n      0x20\n      dup1\n      dup3\n      add\n      dup6\n      swap1\n      mstore\n      dup2\n      dup4\n      add\n      dup5\n      swap1\n      mstore\n      0x00\n        /* \"contracts/Perpustakaan.sol\":1669:1685  bukuByISBN[ISBN] */\n      dup8\n      dup2\n      mstore\n      dup1\n      dup3\n      mstore\n      swap3\n      swap1\n      swap3\n      keccak256\n        /* \"contracts/Perpustakaan.sol\":1669:1721  bukuByISBN[ISBN] = Buku(judul, tahunDibuat, penulis) */\n      dup2\n      mload\n      dup1\n      mload\n        /* \"contracts/Perpustakaan.sol\":1688:1721  Buku(judul, tahunDibuat, penulis) */\n      swap3\n      swap4\n        /* \"contracts/Perpustakaan.sol\":1669:1685  bukuByISBN[ISBN] */\n      swap2\n      swap3\n        /* \"contracts/Perpustakaan.sol\":1669:1721  bukuByISBN[ISBN] = Buku(judul, tahunDibuat, penulis) */\n      tag_78\n      swap3\n        /* \"contracts/Perpustakaan.sol\":1669:1685  bukuByISBN[ISBN] */\n      dup5\n      swap3\n        /* \"contracts/Perpustakaan.sol\":1669:1721  bukuByISBN[ISBN] = Buku(judul, tahunDibuat, penulis) */\n      add\n      swap1\n      tag_68\n      jump\t// in\n    tag_78:\n      pop\n      0x20\n      dup3\n      dup2\n      add\n      mload\n      0x01\n      dup4\n      add\n      sstore\n      0x40\n      dup4\n      add\n      mload\n      dup1\n      mload\n      tag_79\n      swap3\n      0x02\n      dup6\n      add\n      swap3\n      add\n      swap1\n      tag_68\n      jump\t// in\n    tag_79:\n      pop\n      swap1\n      pop\n      pop\n        /* \"contracts/Perpustakaan.sol\":1778:1825  BukuDiUpdate(ISBN, judul, tahunDibuat, penulis) */\n      0x3de851df31ed010f9b8e47e3fd14c70b9217b7f7b8b7cc17b7c82160007fde7f\n        /* \"contracts/Perpustakaan.sol\":1791:1795  ISBN */\n      dup5\n        /* \"contracts/Perpustakaan.sol\":1797:1802  judul */\n      dup5\n        /* \"contracts/Perpustakaan.sol\":1804:1815  tahunDibuat */\n      dup5\n        /* \"contracts/Perpustakaan.sol\":1817:1824  penulis */\n      dup5\n        /* \"contracts/Perpustakaan.sol\":1778:1825  BukuDiUpdate(ISBN, judul, tahunDibuat, penulis) */\n      mload(0x40)\n      tag_70\n      swap5\n      swap4\n      swap3\n      swap2\n      swap1\n      tag_71\n      jump\t// in\n        /* \"contracts/Perpustakaan.sol\":232:274  mapping(uint256 => Buku) public bukuByISBN */\n    tag_27:\n      0x00\n      0x20\n      dup2\n      swap1\n      mstore\n      swap1\n      dup2\n      mstore\n      0x40\n      swap1\n      keccak256\n      dup1\n      sload\n      dup2\n      swap1\n      tag_81\n      swap1\n      tag_50\n      jump\t// in\n    tag_81:\n      dup1\n      0x1f\n      add\n      0x20\n      dup1\n      swap2\n      div\n      mul\n      0x20\n      add\n      mload(0x40)\n      swap1\n      dup2\n      add\n      0x40\n      mstore\n      dup1\n      swap3\n      swap2\n      swap1\n      dup2\n      dup2\n      mstore\n      0x20\n      add\n      dup3\n      dup1\n      sload\n      tag_82\n      swap1\n      tag_50\n      jump\t// in\n    tag_82:\n      dup1\n      iszero\n      tag_83\n      jumpi\n      dup1\n      0x1f\n      lt\n      tag_84\n      jumpi\n      0x0100\n      dup1\n      dup4\n      sload\n      div\n      mul\n      dup4\n      mstore\n      swap2\n      0x20\n      add\n      swap2\n      jump(tag_83)\n    tag_84:\n      dup3\n      add\n      swap2\n      swap1\n      0x00\n      mstore\n      keccak256(0x00, 0x20)\n      swap1\n    tag_85:\n      dup2\n      sload\n      dup2\n      mstore\n      swap1\n      0x01\n      add\n      swap1\n      0x20\n      add\n      dup1\n      dup4\n      gt\n      tag_85\n      jumpi\n      dup3\n      swap1\n      sub\n      0x1f\n      and\n      dup3\n      add\n      swap2\n    tag_83:\n      pop\n      pop\n      pop\n      pop\n      pop\n      swap1\n      dup1\n      0x01\n      add\n      sload\n      swap1\n      dup1\n      0x02\n      add\n      dup1\n      sload\n      tag_86\n      swap1\n      tag_50\n      jump\t// in\n    tag_86:\n      dup1\n      0x1f\n      add\n      0x20\n      dup1\n      swap2\n      div\n      mul\n      0x20\n      add\n      mload(0x40)\n      swap1\n      dup2\n      add\n      0x40\n      mstore\n      dup1\n      swap3\n      swap2\n      swap1\n      dup2\n      dup2\n      mstore\n      0x20\n      add\n      dup3\n      dup1\n      sload\n      tag_87\n      swap1\n      tag_50\n      jump\t// in\n    tag_87:\n      dup1\n      iszero\n      tag_88\n      jumpi\n      dup1\n      0x1f\n      lt\n      tag_89\n      jumpi\n      0x0100\n      dup1\n      dup4\n      sload\n      div\n      mul\n      dup4\n      mstore\n      swap2\n      0x20\n      add\n      swap2\n      jump(tag_88)\n    tag_89:\n      dup3\n      add\n      swap2\n      swap1\n      0x00\n      mstore\n      keccak256(0x00, 0x20)\n      swap1\n    tag_90:\n      dup2\n      sload\n      dup2\n      mstore\n      swap1\n      0x01\n      add\n      swap1\n      0x20\n      add\n      dup1\n      dup4\n      gt\n      tag_90\n      jumpi\n      dup3\n      swap1\n      sub\n      0x1f\n      and\n      dup3\n      add\n      swap2\n    tag_88:\n      pop\n      pop\n      pop\n      pop\n      pop\n      swap1\n      pop\n      dup4\n      jump\t// out\n    tag_42:\n      pop\n      dup1\n      sload\n      tag_91\n      swap1\n      tag_50\n      jump\t// in\n    tag_91:\n      0x00\n      dup3\n      sstore\n      dup1\n      0x1f\n      lt\n      tag_93\n      jumpi\n      pop\n      pop\n      jump\t// out\n    tag_93:\n      0x1f\n      add\n      0x20\n      swap1\n      div\n      swap1\n      0x00\n      mstore\n      keccak256(0x00, 0x20)\n      swap1\n      dup2\n      add\n      swap1\n      tag_94\n      swap2\n      swap1\n      tag_95\n      jump\t// in\n    tag_94:\n      pop\n      jump\t// out\n    tag_68:\n      dup3\n      dup1\n      sload\n      tag_96\n      swap1\n      tag_50\n      jump\t// in\n    tag_96:\n      swap1\n      0x00\n      mstore\n      keccak256(0x00, 0x20)\n      swap1\n      0x1f\n      add\n      0x20\n      swap1\n      div\n      dup2\n      add\n      swap3\n      dup3\n      tag_98\n      jumpi\n      0x00\n      dup6\n      sstore\n      jump(tag_101)\n    tag_98:\n      dup3\n      0x1f\n      lt\n      tag_99\n      jumpi\n      dup1\n      mload\n      not(0xff)\n      and\n      dup4\n      dup1\n      add\n      or\n      dup6\n      sstore\n      jump(tag_101)\n    tag_99:\n      dup3\n      dup1\n      add\n      0x01\n      add\n      dup6\n      sstore\n      dup3\n      iszero\n      tag_101\n      jumpi\n      swap2\n      dup3\n      add\n    tag_100:\n      dup3\n      dup2\n      gt\n      iszero\n      tag_101\n      jumpi\n      dup3\n      mload\n      dup3\n      sstore\n      swap2\n      0x20\n      add\n      swap2\n      swap1\n      0x01\n      add\n      swap1\n      jump(tag_100)\n    tag_101:\n      pop\n      tag_102\n      swap3\n      swap2\n      pop\n      tag_95\n      jump\t// in\n    tag_102:\n      pop\n      swap1\n      jump\t// out\n    tag_95:\n    tag_103:\n      dup1\n      dup3\n      gt\n      iszero\n      tag_102\n      jumpi\n      0x00\n      dup2\n      sstore\n      0x01\n      add\n      jump(tag_103)\n        /* \"#utility.yul\":14:194   */\n    tag_11:\n        /* \"#utility.yul\":73:79   */\n      0x00\n        /* \"#utility.yul\":126:128   */\n      0x20\n        /* \"#utility.yul\":114:123   */\n      dup3\n        /* \"#utility.yul\":105:112   */\n      dup5\n        /* \"#utility.yul\":101:124   */\n      sub\n        /* \"#utility.yul\":97:129   */\n      slt\n        /* \"#utility.yul\":94:146   */\n      iszero\n      tag_110\n      jumpi\n        /* \"#utility.yul\":142:143   */\n      0x00\n        /* \"#utility.yul\":139:140   */\n      dup1\n        /* \"#utility.yul\":132:144   */\n      revert\n        /* \"#utility.yul\":94:146   */\n    tag_110:\n      pop\n        /* \"#utility.yul\":165:188   */\n      calldataload\n      swap2\n        /* \"#utility.yul\":14:194   */\n      swap1\n      pop\n      jump\t// out\n        /* \"#utility.yul\":199:671   */\n    tag_105:\n        /* \"#utility.yul\":241:244   */\n      0x00\n        /* \"#utility.yul\":279:284   */\n      dup2\n        /* \"#utility.yul\":273:285   */\n      mload\n        /* \"#utility.yul\":306:312   */\n      dup1\n        /* \"#utility.yul\":301:304   */\n      dup5\n        /* \"#utility.yul\":294:313   */\n      mstore\n        /* \"#utility.yul\":331:332   */\n      0x00\n        /* \"#utility.yul\":341:503   */\n    tag_112:\n        /* \"#utility.yul\":355:361   */\n      dup2\n        /* \"#utility.yul\":352:353   */\n      dup2\n        /* \"#utility.yul\":349:362   */\n      lt\n        /* \"#utility.yul\":341:503   */\n      iszero\n      tag_114\n      jumpi\n        /* \"#utility.yul\":417:421   */\n      0x20\n        /* \"#utility.yul\":473:486   */\n      dup2\n      dup6\n      add\n        /* \"#utility.yul\":469:491   */\n      dup2\n      add\n        /* \"#utility.yul\":463:492   */\n      mload\n        /* \"#utility.yul\":445:456   */\n      dup7\n      dup4\n      add\n        /* \"#utility.yul\":441:461   */\n      dup3\n      add\n        /* \"#utility.yul\":434:493   */\n      mstore\n        /* \"#utility.yul\":370:382   */\n      add\n        /* \"#utility.yul\":341:503   */\n      jump(tag_112)\n    tag_114:\n        /* \"#utility.yul\":521:527   */\n      dup2\n        /* \"#utility.yul\":518:519   */\n      dup2\n        /* \"#utility.yul\":515:528   */\n      gt\n        /* \"#utility.yul\":512:599   */\n      iszero\n      tag_115\n      jumpi\n        /* \"#utility.yul\":587:588   */\n      0x00\n        /* \"#utility.yul\":580:584   */\n      0x20\n        /* \"#utility.yul\":571:577   */\n      dup4\n        /* \"#utility.yul\":566:569   */\n      dup8\n        /* \"#utility.yul\":562:578   */\n      add\n        /* \"#utility.yul\":558:585   */\n      add\n        /* \"#utility.yul\":551:589   */\n      mstore\n        /* \"#utility.yul\":512:599   */\n    tag_115:\n      pop\n        /* \"#utility.yul\":653:655   */\n      0x1f\n        /* \"#utility.yul\":632:647   */\n      add\n      not(0x1f)\n        /* \"#utility.yul\":628:657   */\n      and\n        /* \"#utility.yul\":619:658   */\n      swap3\n      swap1\n      swap3\n      add\n        /* \"#utility.yul\":660:664   */\n      0x20\n        /* \"#utility.yul\":615:665   */\n      add\n      swap3\n        /* \"#utility.yul\":199:671   */\n      swap2\n      pop\n      pop\n      jump\t// out\n        /* \"#utility.yul\":676:1130   */\n    tag_17:\n        /* \"#utility.yul\":901:903   */\n      0x60\n        /* \"#utility.yul\":890:899   */\n      dup2\n        /* \"#utility.yul\":883:904   */\n      mstore\n        /* \"#utility.yul\":864:868   */\n      0x00\n        /* \"#utility.yul\":927:972   */\n      tag_117\n        /* \"#utility.yul\":968:970   */\n      0x60\n        /* \"#utility.yul\":957:966   */\n      dup4\n        /* \"#utility.yul\":953:971   */\n      add\n        /* \"#utility.yul\":945:951   */\n      dup7\n        /* \"#utility.yul\":927:972   */\n      tag_105\n      jump\t// in\n    tag_117:\n        /* \"#utility.yul\":1008:1014   */\n      dup5\n        /* \"#utility.yul\":1003:1005   */\n      0x20\n        /* \"#utility.yul\":992:1001   */\n      dup5\n        /* \"#utility.yul\":988:1006   */\n      add\n        /* \"#utility.yul\":981:1015   */\n      mstore\n        /* \"#utility.yul\":1063:1072   */\n      dup3\n        /* \"#utility.yul\":1055:1061   */\n      dup2\n        /* \"#utility.yul\":1051:1073   */\n      sub\n        /* \"#utility.yul\":1046:1048   */\n      0x40\n        /* \"#utility.yul\":1035:1044   */\n      dup5\n        /* \"#utility.yul\":1031:1049   */\n      add\n        /* \"#utility.yul\":1024:1074   */\n      mstore\n        /* \"#utility.yul\":1091:1124   */\n      tag_118\n        /* \"#utility.yul\":1117:1123   */\n      dup2\n        /* \"#utility.yul\":1109:1115   */\n      dup6\n        /* \"#utility.yul\":1091:1124   */\n      tag_105\n      jump\t// in\n    tag_118:\n        /* \"#utility.yul\":1083:1124   */\n      swap7\n        /* \"#utility.yul\":676:1130   */\n      swap6\n      pop\n      pop\n      pop\n      pop\n      pop\n      pop\n      jump\t// out\n        /* \"#utility.yul\":1135:1262   */\n    tag_106:\n        /* \"#utility.yul\":1196:1206   */\n      0x4e487b71\n        /* \"#utility.yul\":1191:1194   */\n      0xe0\n        /* \"#utility.yul\":1187:1207   */\n      shl\n        /* \"#utility.yul\":1184:1185   */\n      0x00\n        /* \"#utility.yul\":1177:1208   */\n      mstore\n        /* \"#utility.yul\":1227:1231   */\n      0x41\n        /* \"#utility.yul\":1224:1225   */\n      0x04\n        /* \"#utility.yul\":1217:1232   */\n      mstore\n        /* \"#utility.yul\":1251:1255   */\n      0x24\n        /* \"#utility.yul\":1248:1249   */\n      0x00\n        /* \"#utility.yul\":1241:1256   */\n      revert\n        /* \"#utility.yul\":1267:1986   */\n    tag_107:\n        /* \"#utility.yul\":1310:1315   */\n      0x00\n        /* \"#utility.yul\":1363:1366   */\n      dup3\n        /* \"#utility.yul\":1356:1360   */\n      0x1f\n        /* \"#utility.yul\":1348:1354   */\n      dup4\n        /* \"#utility.yul\":1344:1361   */\n      add\n        /* \"#utility.yul\":1340:1367   */\n      slt\n        /* \"#utility.yul\":1330:1385   */\n      tag_121\n      jumpi\n        /* \"#utility.yul\":1381:1382   */\n      0x00\n        /* \"#utility.yul\":1378:1379   */\n      dup1\n        /* \"#utility.yul\":1371:1383   */\n      revert\n        /* \"#utility.yul\":1330:1385   */\n    tag_121:\n        /* \"#utility.yul\":1417:1423   */\n      dup2\n        /* \"#utility.yul\":1404:1424   */\n      calldataload\n        /* \"#utility.yul\":1443:1461   */\n      0xffffffffffffffff\n        /* \"#utility.yul\":1480:1482   */\n      dup1\n        /* \"#utility.yul\":1476:1478   */\n      dup3\n        /* \"#utility.yul\":1473:1483   */\n      gt\n        /* \"#utility.yul\":1470:1506   */\n      iszero\n      tag_123\n      jumpi\n        /* \"#utility.yul\":1486:1504   */\n      tag_123\n      tag_106\n      jump\t// in\n    tag_123:\n        /* \"#utility.yul\":1561:1563   */\n      0x40\n        /* \"#utility.yul\":1555:1564   */\n      mload\n        /* \"#utility.yul\":1529:1531   */\n      0x1f\n        /* \"#utility.yul\":1615:1628   */\n      dup4\n      add\n      not(0x1f)\n        /* \"#utility.yul\":1611:1633   */\n      swap1\n      dup2\n      and\n        /* \"#utility.yul\":1635:1637   */\n      0x3f\n        /* \"#utility.yul\":1607:1638   */\n      add\n        /* \"#utility.yul\":1603:1643   */\n      and\n        /* \"#utility.yul\":1591:1644   */\n      dup2\n      add\n      swap1\n        /* \"#utility.yul\":1659:1677   */\n      dup3\n      dup3\n      gt\n        /* \"#utility.yul\":1679:1701   */\n      dup2\n      dup4\n      lt\n        /* \"#utility.yul\":1656:1702   */\n      or\n        /* \"#utility.yul\":1653:1725   */\n      iszero\n      tag_125\n      jumpi\n        /* \"#utility.yul\":1705:1723   */\n      tag_125\n      tag_106\n      jump\t// in\n    tag_125:\n        /* \"#utility.yul\":1745:1755   */\n      dup2\n        /* \"#utility.yul\":1741:1743   */\n      0x40\n        /* \"#utility.yul\":1734:1756   */\n      mstore\n        /* \"#utility.yul\":1780:1782   */\n      dup4\n        /* \"#utility.yul\":1772:1778   */\n      dup2\n        /* \"#utility.yul\":1765:1783   */\n      mstore\n        /* \"#utility.yul\":1826:1829   */\n      dup7\n        /* \"#utility.yul\":1819:1823   */\n      0x20\n        /* \"#utility.yul\":1814:1816   */\n      dup6\n        /* \"#utility.yul\":1806:1812   */\n      dup9\n        /* \"#utility.yul\":1802:1817   */\n      add\n        /* \"#utility.yul\":1798:1824   */\n      add\n        /* \"#utility.yul\":1795:1830   */\n      gt\n        /* \"#utility.yul\":1792:1847   */\n      iszero\n      tag_126\n      jumpi\n        /* \"#utility.yul\":1843:1844   */\n      0x00\n        /* \"#utility.yul\":1840:1841   */\n      dup1\n        /* \"#utility.yul\":1833:1845   */\n      revert\n        /* \"#utility.yul\":1792:1847   */\n    tag_126:\n        /* \"#utility.yul\":1907:1909   */\n      dup4\n        /* \"#utility.yul\":1900:1904   */\n      0x20\n        /* \"#utility.yul\":1892:1898   */\n      dup8\n        /* \"#utility.yul\":1888:1905   */\n      add\n        /* \"#utility.yul\":1881:1885   */\n      0x20\n        /* \"#utility.yul\":1873:1879   */\n      dup4\n        /* \"#utility.yul\":1869:1886   */\n      add\n        /* \"#utility.yul\":1856:1910   */\n      calldatacopy\n        /* \"#utility.yul\":1954:1955   */\n      0x00\n        /* \"#utility.yul\":1947:1951   */\n      0x20\n        /* \"#utility.yul\":1942:1944   */\n      dup6\n        /* \"#utility.yul\":1934:1940   */\n      dup4\n        /* \"#utility.yul\":1930:1945   */\n      add\n        /* \"#utility.yul\":1926:1952   */\n      add\n        /* \"#utility.yul\":1919:1956   */\n      mstore\n        /* \"#utility.yul\":1974:1980   */\n      dup1\n        /* \"#utility.yul\":1965:1980   */\n      swap5\n      pop\n      pop\n      pop\n      pop\n      pop\n        /* \"#utility.yul\":1267:1986   */\n      swap3\n      swap2\n      pop\n      pop\n      jump\t// out\n        /* \"#utility.yul\":1991:2671   */\n    tag_20:\n        /* \"#utility.yul\":2097:2103   */\n      0x00\n        /* \"#utility.yul\":2105:2111   */\n      dup1\n        /* \"#utility.yul\":2113:2119   */\n      0x00\n        /* \"#utility.yul\":2121:2127   */\n      dup1\n        /* \"#utility.yul\":2174:2177   */\n      0x80\n        /* \"#utility.yul\":2162:2171   */\n      dup6\n        /* \"#utility.yul\":2153:2160   */\n      dup8\n        /* \"#utility.yul\":2149:2172   */\n      sub\n        /* \"#utility.yul\":2145:2178   */\n      slt\n        /* \"#utility.yul\":2142:2195   */\n      iszero\n      tag_128\n      jumpi\n        /* \"#utility.yul\":2191:2192   */\n      0x00\n        /* \"#utility.yul\":2188:2189   */\n      dup1\n        /* \"#utility.yul\":2181:2193   */\n      revert\n        /* \"#utility.yul\":2142:2195   */\n    tag_128:\n        /* \"#utility.yul\":2227:2236   */\n      dup5\n        /* \"#utility.yul\":2214:2237   */\n      calldataload\n        /* \"#utility.yul\":2204:2237   */\n      swap4\n      pop\n        /* \"#utility.yul\":2288:2290   */\n      0x20\n        /* \"#utility.yul\":2277:2286   */\n      dup6\n        /* \"#utility.yul\":2273:2291   */\n      add\n        /* \"#utility.yul\":2260:2292   */\n      calldataload\n        /* \"#utility.yul\":2311:2329   */\n      0xffffffffffffffff\n        /* \"#utility.yul\":2352:2354   */\n      dup1\n        /* \"#utility.yul\":2344:2350   */\n      dup3\n        /* \"#utility.yul\":2341:2355   */\n      gt\n        /* \"#utility.yul\":2338:2372   */\n      iszero\n      tag_129\n      jumpi\n        /* \"#utility.yul\":2368:2369   */\n      0x00\n        /* \"#utility.yul\":2365:2366   */\n      dup1\n        /* \"#utility.yul\":2358:2370   */\n      revert\n        /* \"#utility.yul\":2338:2372   */\n    tag_129:\n        /* \"#utility.yul\":2391:2441   */\n      tag_130\n        /* \"#utility.yul\":2433:2440   */\n      dup9\n        /* \"#utility.yul\":2424:2430   */\n      dup4\n        /* \"#utility.yul\":2413:2422   */\n      dup10\n        /* \"#utility.yul\":2409:2431   */\n      add\n        /* \"#utility.yul\":2391:2441   */\n      tag_107\n      jump\t// in\n    tag_130:\n        /* \"#utility.yul\":2381:2441   */\n      swap5\n      pop\n        /* \"#utility.yul\":2488:2490   */\n      0x40\n        /* \"#utility.yul\":2477:2486   */\n      dup8\n        /* \"#utility.yul\":2473:2491   */\n      add\n        /* \"#utility.yul\":2460:2492   */\n      calldataload\n        /* \"#utility.yul\":2450:2492   */\n      swap4\n      pop\n        /* \"#utility.yul\":2545:2547   */\n      0x60\n        /* \"#utility.yul\":2534:2543   */\n      dup8\n        /* \"#utility.yul\":2530:2548   */\n      add\n        /* \"#utility.yul\":2517:2549   */\n      calldataload\n        /* \"#utility.yul\":2501:2549   */\n      swap2\n      pop\n        /* \"#utility.yul\":2574:2576   */\n      dup1\n        /* \"#utility.yul\":2564:2572   */\n      dup3\n        /* \"#utility.yul\":2561:2577   */\n      gt\n        /* \"#utility.yul\":2558:2594   */\n      iszero\n      tag_131\n      jumpi\n        /* \"#utility.yul\":2590:2591   */\n      0x00\n        /* \"#utility.yul\":2587:2588   */\n      dup1\n        /* \"#utility.yul\":2580:2592   */\n      revert\n        /* \"#utility.yul\":2558:2594   */\n    tag_131:\n      pop\n        /* \"#utility.yul\":2613:2665   */\n      tag_132\n        /* \"#utility.yul\":2657:2664   */\n      dup8\n        /* \"#utility.yul\":2646:2654   */\n      dup3\n        /* \"#utility.yul\":2635:2644   */\n      dup9\n        /* \"#utility.yul\":2631:2655   */\n      add\n        /* \"#utility.yul\":2613:2665   */\n      tag_107\n      jump\t// in\n    tag_132:\n        /* \"#utility.yul\":2603:2665   */\n      swap2\n      pop\n      pop\n        /* \"#utility.yul\":1991:2671   */\n      swap3\n      swap6\n      swap2\n      swap5\n      pop\n      swap3\n      pop\n      jump\t// out\n        /* \"#utility.yul\":2884:3291   */\n    tag_36:\n        /* \"#utility.yul\":3086:3088   */\n      0x20\n        /* \"#utility.yul\":3068:3089   */\n      dup1\n      dup3\n      mstore\n        /* \"#utility.yul\":3125:3127   */\n      0x2b\n        /* \"#utility.yul\":3105:3123   */\n      swap1\n      dup3\n      add\n        /* \"#utility.yul\":3098:3128   */\n      mstore\n        /* \"#utility.yul\":3164:3198   */\n      0x48616e79612061646d696e2079616e67206461706174206d656e67616b736573\n        /* \"#utility.yul\":3159:3161   */\n      0x40\n        /* \"#utility.yul\":3144:3162   */\n      dup3\n      add\n        /* \"#utility.yul\":3137:3199   */\n      mstore\n      shl(0xa8, 0x2066756e67736920696e69)\n        /* \"#utility.yul\":3230:3232   */\n      0x60\n        /* \"#utility.yul\":3215:3233   */\n      dup3\n      add\n        /* \"#utility.yul\":3208:3249   */\n      mstore\n        /* \"#utility.yul\":3281:3284   */\n      0x80\n        /* \"#utility.yul\":3266:3285   */\n      add\n      swap1\n        /* \"#utility.yul\":2884:3291   */\n      jump\t// out\n        /* \"#utility.yul\":3296:3696   */\n    tag_40:\n        /* \"#utility.yul\":3498:3500   */\n      0x20\n        /* \"#utility.yul\":3480:3501   */\n      dup1\n      dup3\n      mstore\n        /* \"#utility.yul\":3537:3539   */\n      0x24\n        /* \"#utility.yul\":3517:3535   */\n      swap1\n      dup3\n      add\n        /* \"#utility.yul\":3510:3540   */\n      mstore\n        /* \"#utility.yul\":3576:3610   */\n      0x42756b752064656e67616e204953424e20696e6920746964616b20646974656d\n        /* \"#utility.yul\":3571:3573   */\n      0x40\n        /* \"#utility.yul\":3556:3574   */\n      dup3\n      add\n        /* \"#utility.yul\":3549:3611   */\n      mstore\n      shl(0xe1, 0x3ab5b0b7)\n        /* \"#utility.yul\":3642:3644   */\n      0x60\n        /* \"#utility.yul\":3627:3645   */\n      dup3\n      add\n        /* \"#utility.yul\":3620:3654   */\n      mstore\n        /* \"#utility.yul\":3686:3689   */\n      0x80\n        /* \"#utility.yul\":3671:3690   */\n      add\n      swap1\n        /* \"#utility.yul\":3296:3696   */\n      jump\t// out\n        /* \"#utility.yul\":3883:4263   */\n    tag_50:\n        /* \"#utility.yul\":3962:3963   */\n      0x01\n        /* \"#utility.yul\":3958:3970   */\n      dup2\n      dup2\n      shr\n      swap1\n        /* \"#utility.yul\":4005:4017   */\n      dup3\n      and\n      dup1\n        /* \"#utility.yul\":4026:4087   */\n      tag_138\n      jumpi\n        /* \"#utility.yul\":4080:4084   */\n      0x7f\n        /* \"#utility.yul\":4072:4078   */\n      dup3\n        /* \"#utility.yul\":4068:4085   */\n      and\n        /* \"#utility.yul\":4058:4085   */\n      swap2\n      pop\n        /* \"#utility.yul\":4026:4087   */\n    tag_138:\n        /* \"#utility.yul\":4133:4135   */\n      0x20\n        /* \"#utility.yul\":4125:4131   */\n      dup3\n        /* \"#utility.yul\":4122:4136   */\n      lt\n        /* \"#utility.yul\":4102:4120   */\n      dup2\n        /* \"#utility.yul\":4099:4137   */\n      sub\n        /* \"#utility.yul\":4096:4257   */\n      tag_139\n      jumpi\n        /* \"#utility.yul\":4179:4189   */\n      0x4e487b71\n        /* \"#utility.yul\":4174:4177   */\n      0xe0\n        /* \"#utility.yul\":4170:4190   */\n      shl\n        /* \"#utility.yul\":4167:4168   */\n      0x00\n        /* \"#utility.yul\":4160:4191   */\n      mstore\n        /* \"#utility.yul\":4214:4218   */\n      0x22\n        /* \"#utility.yul\":4211:4212   */\n      0x04\n        /* \"#utility.yul\":4204:4219   */\n      mstore\n        /* \"#utility.yul\":4242:4246   */\n      0x24\n        /* \"#utility.yul\":4239:4240   */\n      0x00\n        /* \"#utility.yul\":4232:4247   */\n      revert\n        /* \"#utility.yul\":4096:4257   */\n    tag_139:\n      pop\n        /* \"#utility.yul\":3883:4263   */\n      swap2\n      swap1\n      pop\n      jump\t// out\n        /* \"#utility.yul\":4627:5154   */\n    tag_71:\n        /* \"#utility.yul\":4880:4886   */\n      dup5\n        /* \"#utility.yul\":4869:4878   */\n      dup2\n        /* \"#utility.yul\":4862:4887   */\n      mstore\n        /* \"#utility.yul\":4923:4926   */\n      0x80\n        /* \"#utility.yul\":4918:4920   */\n      0x20\n        /* \"#utility.yul\":4907:4916   */\n      dup3\n        /* \"#utility.yul\":4903:4921   */\n      add\n        /* \"#utility.yul\":4896:4927   */\n      mstore\n        /* \"#utility.yul\":4843:4847   */\n      0x00\n        /* \"#utility.yul\":4950:4996   */\n      tag_142\n        /* \"#utility.yul\":4991:4994   */\n      0x80\n        /* \"#utility.yul\":4980:4989   */\n      dup4\n        /* \"#utility.yul\":4976:4995   */\n      add\n        /* \"#utility.yul\":4968:4974   */\n      dup7\n        /* \"#utility.yul\":4950:4996   */\n      tag_105\n      jump\t// in\n    tag_142:\n        /* \"#utility.yul\":5032:5038   */\n      dup5\n        /* \"#utility.yul\":5027:5029   */\n      0x40\n        /* \"#utility.yul\":5016:5025   */\n      dup5\n        /* \"#utility.yul\":5012:5030   */\n      add\n        /* \"#utility.yul\":5005:5039   */\n      mstore\n        /* \"#utility.yul\":5087:5096   */\n      dup3\n        /* \"#utility.yul\":5079:5085   */\n      dup2\n        /* \"#utility.yul\":5075:5097   */\n      sub\n        /* \"#utility.yul\":5070:5072   */\n      0x60\n        /* \"#utility.yul\":5059:5068   */\n      dup5\n        /* \"#utility.yul\":5055:5073   */\n      add\n        /* \"#utility.yul\":5048:5098   */\n      mstore\n        /* \"#utility.yul\":5115:5148   */\n      tag_143\n        /* \"#utility.yul\":5141:5147   */\n      dup2\n        /* \"#utility.yul\":5133:5139   */\n      dup6\n        /* \"#utility.yul\":5115:5148   */\n      tag_105\n      jump\t// in\n    tag_143:\n        /* \"#utility.yul\":5107:5148   */\n      swap8\n        /* \"#utility.yul\":4627:5154   */\n      swap7\n      pop\n      pop\n      pop\n      pop\n      pop\n      pop\n      pop\n      jump\t// out\n\n    auxdata: 0xa264697066735822122054ca1b6d00689bdc89990ed4e028804167443a72ecbcf27e7497673fbe3b643e64736f6c634300080d0033\n}\n",
				"bytecode": {
					"linkReferences": {},
					"object": "6080604052600180546001600160a01b031916735b38da6a701c568545dcfcb03fcb875f56beddc417905534801561003657600080fd5b50600180546001600160a01b03191633179055610a68806100586000396000f3fe608060405234801561001057600080fd5b50600436106100625760003560e01c80632e28a7ca1461006757806362b56c741461007c578063b4a19ae4146100a7578063ebe47460146100ba578063f0a85cf7146100cd578063f851a440146100e0575b600080fd5b61007a610075366004610778565b61010b565b005b61008f61008a366004610778565b6101d7565b60405161009e939291906107de565b60405180910390f35b61007a6100b53660046108b6565b61034f565b61007a6100c83660046108b6565b61047e565b61008f6100db366004610778565b610570565b6001546100f3906001600160a01b031681565b6040516001600160a01b03909116815260200161009e565b6001546001600160a01b0316331461013e5760405162461bcd60e51b81526004016101359061092d565b60405180910390fd5b600081815260208190526040812060010154900361016e5760405162461bcd60e51b815260040161013590610978565b60008181526020819052604081209061018782826106a2565b600182016000905560028201600061019f91906106a2565b50506040518181527fb64bf8f8d915e69adc10f6e2e15e12480757699268bf04af8a5814c6464d209e9060200160405180910390a150565b600081815260208190526040812060010154606091908290820361020d5760405162461bcd60e51b815260040161013590610978565b60008481526020819052604090206001810154815482919060028301908390610235906109bc565b80601f0160208091040260200160405190810160405280929190818152602001828054610261906109bc565b80156102ae5780601f10610283576101008083540402835291602001916102ae565b820191906000526020600020905b81548152906001019060200180831161029157829003601f168201915b505050505092508080546102c1906109bc565b80601f01602080910402602001604051908101604052809291908181526020018280546102ed906109bc565b801561033a5780601f1061030f5761010080835404028352916020019161033a565b820191906000526020600020905b81548152906001019060200180831161031d57829003601f168201915b50505050509050935093509350509193909250565b6001546001600160a01b031633146103795760405162461bcd60e51b81526004016101359061092d565b600084815260208190526040902060010154156103d85760405162461bcd60e51b815260206004820152601e60248201527f42756b752064656e67616e204953424e20696e692073756461682061646100006044820152606401610135565b604080516060810182528481526020808201859052818301849052600087815280825292909220815180519293919261041492849201906106df565b5060208281015160018301556040830151805161043792600285019201906106df565b509050507fd0d4cd8737018e52a6388a5921967e80bec857befd9ca6c10fa377129e0cba4b8484848460405161047094939291906109f6565b60405180910390a150505050565b6001546001600160a01b031633146104a85760405162461bcd60e51b81526004016101359061092d565b60008481526020819052604081206001015490036104d85760405162461bcd60e51b815260040161013590610978565b604080516060810182528481526020808201859052818301849052600087815280825292909220815180519293919261051492849201906106df565b5060208281015160018301556040830151805161053792600285019201906106df565b509050507f3de851df31ed010f9b8e47e3fd14c70b9217b7f7b8b7cc17b7c82160007fde7f8484848460405161047094939291906109f6565b60006020819052908152604090208054819061058b906109bc565b80601f01602080910402602001604051908101604052809291908181526020018280546105b7906109bc565b80156106045780601f106105d957610100808354040283529160200191610604565b820191906000526020600020905b8154815290600101906020018083116105e757829003601f168201915b50505050509080600101549080600201805461061f906109bc565b80601f016020809104026020016040519081016040528092919081815260200182805461064b906109bc565b80156106985780601f1061066d57610100808354040283529160200191610698565b820191906000526020600020905b81548152906001019060200180831161067b57829003601f168201915b5050505050905083565b5080546106ae906109bc565b6000825580601f106106be575050565b601f0160209004906000526020600020908101906106dc9190610763565b50565b8280546106eb906109bc565b90600052602060002090601f01602090048101928261070d5760008555610753565b82601f1061072657805160ff1916838001178555610753565b82800160010185558215610753579182015b82811115610753578251825591602001919060010190610738565b5061075f929150610763565b5090565b5b8082111561075f5760008155600101610764565b60006020828403121561078a57600080fd5b5035919050565b6000815180845260005b818110156107b75760208185018101518683018201520161079b565b818111156107c9576000602083870101525b50601f01601f19169290920160200192915050565b6060815260006107f16060830186610791565b84602084015282810360408401526108098185610791565b9695505050505050565b634e487b7160e01b600052604160045260246000fd5b600082601f83011261083a57600080fd5b813567ffffffffffffffff8082111561085557610855610813565b604051601f8301601f19908116603f0116810190828211818310171561087d5761087d610813565b8160405283815286602085880101111561089657600080fd5b836020870160208301376000602085830101528094505050505092915050565b600080600080608085870312156108cc57600080fd5b84359350602085013567ffffffffffffffff808211156108eb57600080fd5b6108f788838901610829565b945060408701359350606087013591508082111561091457600080fd5b5061092187828801610829565b91505092959194509250565b6020808252602b908201527f48616e79612061646d696e2079616e67206461706174206d656e67616b73657360408201526a2066756e67736920696e6960a81b606082015260800190565b60208082526024908201527f42756b752064656e67616e204953424e20696e6920746964616b20646974656d6040820152633ab5b0b760e11b606082015260800190565b600181811c908216806109d057607f821691505b6020821081036109f057634e487b7160e01b600052602260045260246000fd5b50919050565b848152608060208201526000610a0f6080830186610791565b8460408401528281036060840152610a278185610791565b97965050505050505056fea264697066735822122054ca1b6d00689bdc89990ed4e028804167443a72ecbcf27e7497673fbe3b643e64736f6c634300080d0033",
					"opcodes": "PUSH1 0x80 PUSH1 0x40 MSTORE PUSH1 0x1 DUP1 SLOAD PUSH1 0x1 PUSH1 0x1 PUSH1 0xA0 SHL SUB NOT AND PUSH20 0x5B38DA6A701C568545DCFCB03FCB875F56BEDDC4 OR SWAP1 SSTORE CALLVALUE DUP1 ISZERO PUSH2 0x36 JUMPI PUSH1 0x0 DUP1 REVERT JUMPDEST POP PUSH1 0x1 DUP1 SLOAD PUSH1 0x1 PUSH1 0x1 PUSH1 0xA0 SHL SUB NOT AND CALLER OR SWAP1 SSTORE PUSH2 0xA68 DUP1 PUSH2 0x58 PUSH1 0x0 CODECOPY PUSH1 0x0 RETURN INVALID PUSH1 0x80 PUSH1 0x40 MSTORE CALLVALUE DUP1 ISZERO PUSH2 0x10 JUMPI PUSH1 0x0 DUP1 REVERT JUMPDEST POP PUSH1 0x4 CALLDATASIZE LT PUSH2 0x62 JUMPI PUSH1 0x0 CALLDATALOAD PUSH1 0xE0 SHR DUP1 PUSH4 0x2E28A7CA EQ PUSH2 0x67 JUMPI DUP1 PUSH4 0x62B56C74 EQ PUSH2 0x7C JUMPI DUP1 PUSH4 0xB4A19AE4 EQ PUSH2 0xA7 JUMPI DUP1 PUSH4 0xEBE47460 EQ PUSH2 0xBA JUMPI DUP1 PUSH4 0xF0A85CF7 EQ PUSH2 0xCD JUMPI DUP1 PUSH4 0xF851A440 EQ PUSH2 0xE0 JUMPI JUMPDEST PUSH1 0x0 DUP1 REVERT JUMPDEST PUSH2 0x7A PUSH2 0x75 CALLDATASIZE PUSH1 0x4 PUSH2 0x778 JUMP JUMPDEST PUSH2 0x10B JUMP JUMPDEST STOP JUMPDEST PUSH2 0x8F PUSH2 0x8A CALLDATASIZE PUSH1 0x4 PUSH2 0x778 JUMP JUMPDEST PUSH2 0x1D7 JUMP JUMPDEST PUSH1 0x40 MLOAD PUSH2 0x9E SWAP4 SWAP3 SWAP2 SWAP1 PUSH2 0x7DE JUMP JUMPDEST PUSH1 0x40 MLOAD DUP1 SWAP2 SUB SWAP1 RETURN JUMPDEST PUSH2 0x7A PUSH2 0xB5 CALLDATASIZE PUSH1 0x4 PUSH2 0x8B6 JUMP JUMPDEST PUSH2 0x34F JUMP JUMPDEST PUSH2 0x7A PUSH2 0xC8 CALLDATASIZE PUSH1 0x4 PUSH2 0x8B6 JUMP JUMPDEST PUSH2 0x47E JUMP JUMPDEST PUSH2 0x8F PUSH2 0xDB CALLDATASIZE PUSH1 0x4 PUSH2 0x778 JUMP JUMPDEST PUSH2 0x570 JUMP JUMPDEST PUSH1 0x1 SLOAD PUSH2 0xF3 SWAP1 PUSH1 0x1 PUSH1 0x1 PUSH1 0xA0 SHL SUB AND DUP2 JUMP JUMPDEST PUSH1 0x40 MLOAD PUSH1 0x1 PUSH1 0x1 PUSH1 0xA0 SHL SUB SWAP1 SWAP2 AND DUP2 MSTORE PUSH1 0x20 ADD PUSH2 0x9E JUMP JUMPDEST PUSH1 0x1 SLOAD PUSH1 0x1 PUSH1 0x1 PUSH1 0xA0 SHL SUB AND CALLER EQ PUSH2 0x13E JUMPI PUSH1 0x40 MLOAD PUSH3 0x461BCD PUSH1 0xE5 SHL DUP2 MSTORE PUSH1 0x4 ADD PUSH2 0x135 SWAP1 PUSH2 0x92D JUMP JUMPDEST PUSH1 0x40 MLOAD DUP1 SWAP2 SUB SWAP1 REVERT JUMPDEST PUSH1 0x0 DUP2 DUP2 MSTORE PUSH1 0x20 DUP2 SWAP1 MSTORE PUSH1 0x40 DUP2 KECCAK256 PUSH1 0x1 ADD SLOAD SWAP1 SUB PUSH2 0x16E JUMPI PUSH1 0x40 MLOAD PUSH3 0x461BCD PUSH1 0xE5 SHL DUP2 MSTORE PUSH1 0x4 ADD PUSH2 0x135 SWAP1 PUSH2 0x978 JUMP JUMPDEST PUSH1 0x0 DUP2 DUP2 MSTORE PUSH1 0x20 DUP2 SWAP1 MSTORE PUSH1 0x40 DUP2 KECCAK256 SWAP1 PUSH2 0x187 DUP3 DUP3 PUSH2 0x6A2 JUMP JUMPDEST PUSH1 0x1 DUP3 ADD PUSH1 0x0 SWAP1 SSTORE PUSH1 0x2 DUP3 ADD PUSH1 0x0 PUSH2 0x19F SWAP2 SWAP1 PUSH2 0x6A2 JUMP JUMPDEST POP POP PUSH1 0x40 MLOAD DUP2 DUP2 MSTORE PUSH32 0xB64BF8F8D915E69ADC10F6E2E15E12480757699268BF04AF8A5814C6464D209E SWAP1 PUSH1 0x20 ADD PUSH1 0x40 MLOAD DUP1 SWAP2 SUB SWAP1 LOG1 POP JUMP JUMPDEST PUSH1 0x0 DUP2 DUP2 MSTORE PUSH1 0x20 DUP2 SWAP1 MSTORE PUSH1 0x40 DUP2 KECCAK256 PUSH1 0x1 ADD SLOAD PUSH1 0x60 SWAP2 SWAP1 DUP3 SWAP1 DUP3 SUB PUSH2 0x20D JUMPI PUSH1 0x40 MLOAD PUSH3 0x461BCD PUSH1 0xE5 SHL DUP2 MSTORE PUSH1 0x4 ADD PUSH2 0x135 SWAP1 PUSH2 0x978 JUMP JUMPDEST PUSH1 0x0 DUP5 DUP2 MSTORE PUSH1 0x20 DUP2 SWAP1 MSTORE PUSH1 0x40 SWAP1 KECCAK256 PUSH1 0x1 DUP2 ADD SLOAD DUP2 SLOAD DUP3 SWAP2 SWAP1 PUSH1 0x2 DUP4 ADD SWAP1 DUP4 SWAP1 PUSH2 0x235 SWAP1 PUSH2 0x9BC JUMP JUMPDEST DUP1 PUSH1 0x1F ADD PUSH1 0x20 DUP1 SWAP2 DIV MUL PUSH1 0x20 ADD PUSH1 0x40 MLOAD SWAP1 DUP2 ADD PUSH1 0x40 MSTORE DUP1 SWAP3 SWAP2 SWAP1 DUP2 DUP2 MSTORE PUSH1 0x20 ADD DUP3 DUP1 SLOAD PUSH2 0x261 SWAP1 PUSH2 0x9BC JUMP JUMPDEST DUP1 ISZERO PUSH2 0x2AE JUMPI DUP1 PUSH1 0x1F LT PUSH2 0x283 JUMPI PUSH2 0x100 DUP1 DUP4 SLOAD DIV MUL DUP4 MSTORE SWAP2 PUSH1 0x20 ADD SWAP2 PUSH2 0x2AE JUMP JUMPDEST DUP3 ADD SWAP2 SWAP1 PUSH1 0x0 MSTORE PUSH1 0x20 PUSH1 0x0 KECCAK256 SWAP1 JUMPDEST DUP2 SLOAD DUP2 MSTORE SWAP1 PUSH1 0x1 ADD SWAP1 PUSH1 0x20 ADD DUP1 DUP4 GT PUSH2 0x291 JUMPI DUP3 SWAP1 SUB PUSH1 0x1F AND DUP3 ADD SWAP2 JUMPDEST POP POP POP POP POP SWAP3 POP DUP1 DUP1 SLOAD PUSH2 0x2C1 SWAP1 PUSH2 0x9BC JUMP JUMPDEST DUP1 PUSH1 0x1F ADD PUSH1 0x20 DUP1 SWAP2 DIV MUL PUSH1 0x20 ADD PUSH1 0x40 MLOAD SWAP1 DUP2 ADD PUSH1 0x40 MSTORE DUP1 SWAP3 SWAP2 SWAP1 DUP2 DUP2 MSTORE PUSH1 0x20 ADD DUP3 DUP1 SLOAD PUSH2 0x2ED SWAP1 PUSH2 0x9BC JUMP JUMPDEST DUP1 ISZERO PUSH2 0x33A JUMPI DUP1 PUSH1 0x1F LT PUSH2 0x30F JUMPI PUSH2 0x100 DUP1 DUP4 SLOAD DIV MUL DUP4 MSTORE SWAP2 PUSH1 0x20 ADD SWAP2 PUSH2 0x33A JUMP JUMPDEST DUP3 ADD SWAP2 SWAP1 PUSH1 0x0 MSTORE PUSH1 0x20 PUSH1 0x0 KECCAK256 SWAP1 JUMPDEST DUP2 SLOAD DUP2 MSTORE SWAP1 PUSH1 0x1 ADD SWAP1 PUSH1 0x20 ADD DUP1 DUP4 GT PUSH2 0x31D JUMPI DUP3 SWAP1 SUB PUSH1 0x1F AND DUP3 ADD SWAP2 JUMPDEST POP POP POP POP POP SWAP1 POP SWAP4 POP SWAP4 POP SWAP4 POP POP SWAP2 SWAP4 SWAP1 SWAP3 POP JUMP JUMPDEST PUSH1 0x1 SLOAD PUSH1 0x1 PUSH1 0x1 PUSH1 0xA0 SHL SUB AND CALLER EQ PUSH2 0x379 JUMPI PUSH1 0x40 MLOAD PUSH3 0x461BCD PUSH1 0xE5 SHL DUP2 MSTORE PUSH1 0x4 ADD PUSH2 0x135 SWAP1 PUSH2 0x92D JUMP JUMPDEST PUSH1 0x0 DUP5 DUP2 MSTORE PUSH1 0x20 DUP2 SWAP1 MSTORE PUSH1 0x40 SWAP1 KECCAK256 PUSH1 0x1 ADD SLOAD ISZERO PUSH2 0x3D8 JUMPI PUSH1 0x40 MLOAD PUSH3 0x461BCD PUSH1 0xE5 SHL DUP2 MSTORE PUSH1 0x20 PUSH1 0x4 DUP3 ADD MSTORE PUSH1 0x1E PUSH1 0x24 DUP3 ADD MSTORE PUSH32 0x42756B752064656E67616E204953424E20696E69207375646168206164610000 PUSH1 0x44 DUP3 ADD MSTORE PUSH1 0x64 ADD PUSH2 0x135 JUMP JUMPDEST PUSH1 0x40 DUP1 MLOAD PUSH1 0x60 DUP2 ADD DUP3 MSTORE DUP5 DUP2 MSTORE PUSH1 0x20 DUP1 DUP3 ADD DUP6 SWAP1 MSTORE DUP2 DUP4 ADD DUP5 SWAP1 MSTORE PUSH1 0x0 DUP8 DUP2 MSTORE DUP1 DUP3 MSTORE SWAP3 SWAP1 SWAP3 KECCAK256 DUP2 MLOAD DUP1 MLOAD SWAP3 SWAP4 SWAP2 SWAP3 PUSH2 0x414 SWAP3 DUP5 SWAP3 ADD SWAP1 PUSH2 0x6DF JUMP JUMPDEST POP PUSH1 0x20 DUP3 DUP2 ADD MLOAD PUSH1 0x1 DUP4 ADD SSTORE PUSH1 0x40 DUP4 ADD MLOAD DUP1 MLOAD PUSH2 0x437 SWAP3 PUSH1 0x2 DUP6 ADD SWAP3 ADD SWAP1 PUSH2 0x6DF JUMP JUMPDEST POP SWAP1 POP POP PUSH32 0xD0D4CD8737018E52A6388A5921967E80BEC857BEFD9CA6C10FA377129E0CBA4B DUP5 DUP5 DUP5 DUP5 PUSH1 0x40 MLOAD PUSH2 0x470 SWAP5 SWAP4 SWAP3 SWAP2 SWAP1 PUSH2 0x9F6 JUMP JUMPDEST PUSH1 0x40 MLOAD DUP1 SWAP2 SUB SWAP1 LOG1 POP POP POP POP JUMP JUMPDEST PUSH1 0x1 SLOAD PUSH1 0x1 PUSH1 0x1 PUSH1 0xA0 SHL SUB AND CALLER EQ PUSH2 0x4A8 JUMPI PUSH1 0x40 MLOAD PUSH3 0x461BCD PUSH1 0xE5 SHL DUP2 MSTORE PUSH1 0x4 ADD PUSH2 0x135 SWAP1 PUSH2 0x92D JUMP JUMPDEST PUSH1 0x0 DUP5 DUP2 MSTORE PUSH1 0x20 DUP2 SWAP1 MSTORE PUSH1 0x40 DUP2 KECCAK256 PUSH1 0x1 ADD SLOAD SWAP1 SUB PUSH2 0x4D8 JUMPI PUSH1 0x40 MLOAD PUSH3 0x461BCD PUSH1 0xE5 SHL DUP2 MSTORE PUSH1 0x4 ADD PUSH2 0x135 SWAP1 PUSH2 0x978 JUMP JUMPDEST PUSH1 0x40 DUP1 MLOAD PUSH1 0x60 DUP2 ADD DUP3 MSTORE DUP5 DUP2 MSTORE PUSH1 0x20 DUP1 DUP3 ADD DUP6 SWAP1 MSTORE DUP2 DUP4 ADD DUP5 SWAP1 MSTORE PUSH1 0x0 DUP8 DUP2 MSTORE DUP1 DUP3 MSTORE SWAP3 SWAP1 SWAP3 KECCAK256 DUP2 MLOAD DUP1 MLOAD SWAP3 SWAP4 SWAP2 SWAP3 PUSH2 0x514 SWAP3 DUP5 SWAP3 ADD SWAP1 PUSH2 0x6DF JUMP JUMPDEST POP PUSH1 0x20 DUP3 DUP2 ADD MLOAD PUSH1 0x1 DUP4 ADD SSTORE PUSH1 0x40 DUP4 ADD MLOAD DUP1 MLOAD PUSH2 0x537 SWAP3 PUSH1 0x2 DUP6 ADD SWAP3 ADD SWAP1 PUSH2 0x6DF JUMP JUMPDEST POP SWAP1 POP POP PUSH32 0x3DE851DF31ED010F9B8E47E3FD14C70B9217B7F7B8B7CC17B7C82160007FDE7F DUP5 DUP5 DUP5 DUP5 PUSH1 0x40 MLOAD PUSH2 0x470 SWAP5 SWAP4 SWAP3 SWAP2 SWAP1 PUSH2 0x9F6 JUMP JUMPDEST PUSH1 0x0 PUSH1 0x20 DUP2 SWAP1 MSTORE SWAP1 DUP2 MSTORE PUSH1 0x40 SWAP1 KECCAK256 DUP1 SLOAD DUP2 SWAP1 PUSH2 0x58B SWAP1 PUSH2 0x9BC JUMP JUMPDEST DUP1 PUSH1 0x1F ADD PUSH1 0x20 DUP1 SWAP2 DIV MUL PUSH1 0x20 ADD PUSH1 0x40 MLOAD SWAP1 DUP2 ADD PUSH1 0x40 MSTORE DUP1 SWAP3 SWAP2 SWAP1 DUP2 DUP2 MSTORE PUSH1 0x20 ADD DUP3 DUP1 SLOAD PUSH2 0x5B7 SWAP1 PUSH2 0x9BC JUMP JUMPDEST DUP1 ISZERO PUSH2 0x604 JUMPI DUP1 PUSH1 0x1F LT PUSH2 0x5D9 JUMPI PUSH2 0x100 DUP1 DUP4 SLOAD DIV MUL DUP4 MSTORE SWAP2 PUSH1 0x20 ADD SWAP2 PUSH2 0x604 JUMP JUMPDEST DUP3 ADD SWAP2 SWAP1 PUSH1 0x0 MSTORE PUSH1 0x20 PUSH1 0x0 KECCAK256 SWAP1 JUMPDEST DUP2 SLOAD DUP2 MSTORE SWAP1 PUSH1 0x1 ADD SWAP1 PUSH1 0x20 ADD DUP1 DUP4 GT PUSH2 0x5E7 JUMPI DUP3 SWAP1 SUB PUSH1 0x1F AND DUP3 ADD SWAP2 JUMPDEST POP POP POP POP POP SWAP1 DUP1 PUSH1 0x1 ADD SLOAD SWAP1 DUP1 PUSH1 0x2 ADD DUP1 SLOAD PUSH2 0x61F SWAP1 PUSH2 0x9BC JUMP JUMPDEST DUP1 PUSH1 0x1F ADD PUSH1 0x20 DUP1 SWAP2 DIV MUL PUSH1 0x20 ADD PUSH1 0x40 MLOAD SWAP1 DUP2 ADD PUSH1 0x40 MSTORE DUP1 SWAP3 SWAP2 SWAP1 DUP2 DUP2 MSTORE PUSH1 0x20 ADD DUP3 DUP1 SLOAD PUSH2 0x64B SWAP1 PUSH2 0x9BC JUMP JUMPDEST DUP1 ISZERO PUSH2 0x698 JUMPI DUP1 PUSH1 0x1F LT PUSH2 0x66D JUMPI PUSH2 0x100 DUP1 DUP4 SLOAD DIV MUL DUP4 MSTORE SWAP2 PUSH1 0x20 ADD SWAP2 PUSH2 0x698 JUMP JUMPDEST DUP3 ADD SWAP2 SWAP1 PUSH1 0x0 MSTORE PUSH1 0x20 PUSH1 0x0 KECCAK256 SWAP1 JUMPDEST DUP2 SLOAD DUP2 MSTORE SWAP1 PUSH1 0x1 ADD SWAP1 PUSH1 0x20 ADD DUP1 DUP4 GT PUSH2 0x67B JUMPI DUP3 SWAP1 SUB PUSH1 0x1F AND DUP3 ADD SWAP2 JUMPDEST POP POP POP POP POP SWAP1 POP DUP4 JUMP JUMPDEST POP DUP1 SLOAD PUSH2 0x6AE SWAP1 PUSH2 0x9BC JUMP JUMPDEST PUSH1 0x0 DUP3 SSTORE DUP1 PUSH1 0x1F LT PUSH2 0x6BE JUMPI POP POP JUMP JUMPDEST PUSH1 0x1F ADD PUSH1 0x20 SWAP1 DIV SWAP1 PUSH1 0x0 MSTORE PUSH1 0x20 PUSH1 0x0 KECCAK256 SWAP1 DUP2 ADD SWAP1 PUSH2 0x6DC SWAP2 SWAP1 PUSH2 0x763 JUMP JUMPDEST POP JUMP JUMPDEST DUP3 DUP1 SLOAD PUSH2 0x6EB SWAP1 PUSH2 0x9BC JUMP JUMPDEST SWAP1 PUSH1 0x0 MSTORE PUSH1 0x20 PUSH1 0x0 KECCAK256 SWAP1 PUSH1 0x1F ADD PUSH1 0x20 SWAP1 DIV DUP2 ADD SWAP3 DUP3 PUSH2 0x70D JUMPI PUSH1 0x0 DUP6 SSTORE PUSH2 0x753 JUMP JUMPDEST DUP3 PUSH1 0x1F LT PUSH2 0x726 JUMPI DUP1 MLOAD PUSH1 0xFF NOT AND DUP4 DUP1 ADD OR DUP6 SSTORE PUSH2 0x753 JUMP JUMPDEST DUP3 DUP1 ADD PUSH1 0x1 ADD DUP6 SSTORE DUP3 ISZERO PUSH2 0x753 JUMPI SWAP2 DUP3 ADD JUMPDEST DUP3 DUP2 GT ISZERO PUSH2 0x753 JUMPI DUP3 MLOAD DUP3 SSTORE SWAP2 PUSH1 0x20 ADD SWAP2 SWAP1 PUSH1 0x1 ADD SWAP1 PUSH2 0x738 JUMP JUMPDEST POP PUSH2 0x75F SWAP3 SWAP2 POP PUSH2 0x763 JUMP JUMPDEST POP SWAP1 JUMP JUMPDEST JUMPDEST DUP1 DUP3 GT ISZERO PUSH2 0x75F JUMPI PUSH1 0x0 DUP2 SSTORE PUSH1 0x1 ADD PUSH2 0x764 JUMP JUMPDEST PUSH1 0x0 PUSH1 0x20 DUP3 DUP5 SUB SLT ISZERO PUSH2 0x78A JUMPI PUSH1 0x0 DUP1 REVERT JUMPDEST POP CALLDATALOAD SWAP2 SWAP1 POP JUMP JUMPDEST PUSH1 0x0 DUP2 MLOAD DUP1 DUP5 MSTORE PUSH1 0x0 JUMPDEST DUP2 DUP2 LT ISZERO PUSH2 0x7B7 JUMPI PUSH1 0x20 DUP2 DUP6 ADD DUP2 ADD MLOAD DUP7 DUP4 ADD DUP3 ADD MSTORE ADD PUSH2 0x79B JUMP JUMPDEST DUP2 DUP2 GT ISZERO PUSH2 0x7C9 JUMPI PUSH1 0x0 PUSH1 0x20 DUP4 DUP8 ADD ADD MSTORE JUMPDEST POP PUSH1 0x1F ADD PUSH1 0x1F NOT AND SWAP3 SWAP1 SWAP3 ADD PUSH1 0x20 ADD SWAP3 SWAP2 POP POP JUMP JUMPDEST PUSH1 0x60 DUP2 MSTORE PUSH1 0x0 PUSH2 0x7F1 PUSH1 0x60 DUP4 ADD DUP7 PUSH2 0x791 JUMP JUMPDEST DUP5 PUSH1 0x20 DUP5 ADD MSTORE DUP3 DUP2 SUB PUSH1 0x40 DUP5 ADD MSTORE PUSH2 0x809 DUP2 DUP6 PUSH2 0x791 JUMP JUMPDEST SWAP7 SWAP6 POP POP POP POP POP POP JUMP JUMPDEST PUSH4 0x4E487B71 PUSH1 0xE0 SHL PUSH1 0x0 MSTORE PUSH1 0x41 PUSH1 0x4 MSTORE PUSH1 0x24 PUSH1 0x0 REVERT JUMPDEST PUSH1 0x0 DUP3 PUSH1 0x1F DUP4 ADD SLT PUSH2 0x83A JUMPI PUSH1 0x0 DUP1 REVERT JUMPDEST DUP2 CALLDATALOAD PUSH8 0xFFFFFFFFFFFFFFFF DUP1 DUP3 GT ISZERO PUSH2 0x855 JUMPI PUSH2 0x855 PUSH2 0x813 JUMP JUMPDEST PUSH1 0x40 MLOAD PUSH1 0x1F DUP4 ADD PUSH1 0x1F NOT SWAP1 DUP2 AND PUSH1 0x3F ADD AND DUP2 ADD SWAP1 DUP3 DUP3 GT DUP2 DUP4 LT OR ISZERO PUSH2 0x87D JUMPI PUSH2 0x87D PUSH2 0x813 JUMP JUMPDEST DUP2 PUSH1 0x40 MSTORE DUP4 DUP2 MSTORE DUP7 PUSH1 0x20 DUP6 DUP9 ADD ADD GT ISZERO PUSH2 0x896 JUMPI PUSH1 0x0 DUP1 REVERT JUMPDEST DUP4 PUSH1 0x20 DUP8 ADD PUSH1 0x20 DUP4 ADD CALLDATACOPY PUSH1 0x0 PUSH1 0x20 DUP6 DUP4 ADD ADD MSTORE DUP1 SWAP5 POP POP POP POP POP SWAP3 SWAP2 POP POP JUMP JUMPDEST PUSH1 0x0 DUP1 PUSH1 0x0 DUP1 PUSH1 0x80 DUP6 DUP8 SUB SLT ISZERO PUSH2 0x8CC JUMPI PUSH1 0x0 DUP1 REVERT JUMPDEST DUP5 CALLDATALOAD SWAP4 POP PUSH1 0x20 DUP6 ADD CALLDATALOAD PUSH8 0xFFFFFFFFFFFFFFFF DUP1 DUP3 GT ISZERO PUSH2 0x8EB JUMPI PUSH1 0x0 DUP1 REVERT JUMPDEST PUSH2 0x8F7 DUP9 DUP4 DUP10 ADD PUSH2 0x829 JUMP JUMPDEST SWAP5 POP PUSH1 0x40 DUP8 ADD CALLDATALOAD SWAP4 POP PUSH1 0x60 DUP8 ADD CALLDATALOAD SWAP2 POP DUP1 DUP3 GT ISZERO PUSH2 0x914 JUMPI PUSH1 0x0 DUP1 REVERT JUMPDEST POP PUSH2 0x921 DUP8 DUP3 DUP9 ADD PUSH2 0x829 JUMP JUMPDEST SWAP2 POP POP SWAP3 SWAP6 SWAP2 SWAP5 POP SWAP3 POP JUMP JUMPDEST PUSH1 0x20 DUP1 DUP3 MSTORE PUSH1 0x2B SWAP1 DUP3 ADD MSTORE PUSH32 0x48616E79612061646D696E2079616E67206461706174206D656E67616B736573 PUSH1 0x40 DUP3 ADD MSTORE PUSH11 0x2066756E67736920696E69 PUSH1 0xA8 SHL PUSH1 0x60 DUP3 ADD MSTORE PUSH1 0x80 ADD SWAP1 JUMP JUMPDEST PUSH1 0x20 DUP1 DUP3 MSTORE PUSH1 0x24 SWAP1 DUP3 ADD MSTORE PUSH32 0x42756B752064656E67616E204953424E20696E6920746964616B20646974656D PUSH1 0x40 DUP3 ADD MSTORE PUSH4 0x3AB5B0B7 PUSH1 0xE1 SHL PUSH1 0x60 DUP3 ADD MSTORE PUSH1 0x80 ADD SWAP1 JUMP JUMPDEST PUSH1 0x1 DUP2 DUP2 SHR SWAP1 DUP3 AND DUP1 PUSH2 0x9D0 JUMPI PUSH1 0x7F DUP3 AND SWAP2 POP JUMPDEST PUSH1 0x20 DUP3 LT DUP2 SUB PUSH2 0x9F0 JUMPI PUSH4 0x4E487B71 PUSH1 0xE0 SHL PUSH1 0x0 MSTORE PUSH1 0x22 PUSH1 0x4 MSTORE PUSH1 0x24 PUSH1 0x0 REVERT JUMPDEST POP SWAP2 SWAP1 POP JUMP JUMPDEST DUP5 DUP2 MSTORE PUSH1 0x80 PUSH1 0x20 DUP3 ADD MSTORE PUSH1 0x0 PUSH2 0xA0F PUSH1 0x80 DUP4 ADD DUP7 PUSH2 0x791 JUMP JUMPDEST DUP5 PUSH1 0x40 DUP5 ADD MSTORE DUP3 DUP2 SUB PUSH1 0x60 DUP5 ADD MSTORE PUSH2 0xA27 DUP2 DUP6 PUSH2 0x791 JUMP JUMPDEST SWAP8 SWAP7 POP POP POP POP POP POP POP JUMP INVALID LOG2 PUSH5 0x6970667358 0x22 SLT KECCAK256 SLOAD 0xCA SHL PUSH14 0x689BDC89990ED4E02880416744 GASPRICE PUSH19 0xECBCF27E7497673FBE3B643E64736F6C634300 ADDMOD 0xD STOP CALLER "
				},
				"gasEstimates": {
					"creation": {
						"codeDepositCost": "532800",
						"executionCost": "49039",
						"totalCost": "581839"
					},
					"external": {
						"admin()": "2425",
						"bukuByISBN(uint256)": "infinite",
						"getDataBukuByISBN(uint256)": "infinite",
						"hapusBuku(uint256)": "infinite",
						"tambahBuku(uint256,string,uint256,string)": "infinite",
						"updateBuku(uint256,string,uint256,string)": "infinite"
					}
				},
				"methodIdentifiers": {
					"admin()": "f851a440",
					"bukuByISBN(uint256)": "f0a85cf7",
					"getDataBukuByISBN(uint256)": "62b56c74",
					"hapusBuku(uint256)": "2e28a7ca",
					"tambahBuku(uint256,string,uint256,string)": "b4a19ae4",
					"updateBuku(uint256,string,uint256,string)": "ebe47460"
				}
			},
			"storageLayout": {
				"storage": [
					{
						"astId": 13,
						"contract": "contracts/Perpustakaan.sol:Perpustakaan",
						"label": "bukuByISBN",
						"offset": 0,
						"slot": "0",
						"type": "t_mapping(t_uint256,t_struct(Buku)8_storage)"
					},
					{
						"astId": 16,
						"contract": "contracts/Perpustakaan.sol:Perpustakaan",
						"label": "admin",
						"offset": 0,
						"slot": "1",
						"type": "t_address"
					}
				],
				"types": {
					"t_address": {
						"encoding": "inplace",
						"label": "address",
						"numberOfBytes": "20"
					},
					"t_mapping(t_uint256,t_struct(Buku)8_storage)": {
						"encoding": "mapping",
						"key": "t_uint256",
						"label": "mapping(uint256 => struct Perpustakaan.Buku)",
						"numberOfBytes": "32",
						"value": "t_struct(Buku)8_storage"
					},
					"t_string_storage": {
						"encoding": "bytes",
						"label": "string",
						"numberOfBytes": "32"
					},
					"t_struct(Buku)8_storage": {
						"encoding": "inplace",
						"label": "struct Perpustakaan.Buku",
						"members": [
							{
								"astId": 3,
								"contract": "contracts/Perpustakaan.sol:Perpustakaan",
								"label": "judul",
								"offset": 0,
								"slot": "0",
								"type": "t_string_storage"
							},
							{
								"astId": 5,
								"contract": "contracts/Perpustakaan.sol:Perpustakaan",
								"label": "tahunDibuat",
								"offset": 0,
								"slot": "1",
								"type": "t_uint256"
							},
							{
								"astId": 7,
								"contract": "contracts/Perpustakaan.sol:Perpustakaan",
								"label": "penulis",
								"offset": 0,
								"slot": "2",
								"type": "t_string_storage"
							}
						],
						"numberOfBytes": "96"
					},
					"t_uint256": {
						"encoding": "inplace",
						"label": "uint256",
						"numberOfBytes": "32"
					}
				}
			},
			"userdoc": {
				"kind": "user",
				"methods": {},
				"version": 1
			}
		}
	}
}